:100000000C9471000C9499000C9499000C94990034
:100010000C9499000C9499000C9499000C949900FC
:100020000C9499000C9499000C9499000C949900EC
:100030000C9499000C9499000C9499000C949900DC
:100040000C9498050C9499000C9466050C9440054A
:100050000C9499000C9499000C9499000C949900BC
:100060000C9499000C94990007634236B79BD8A76B
:100070001A39685618AEBAAB558C1D3CB7CC5763CD
:10008000BD6DEDFD753EF6177231BF000000803F7B
:1000900000000000240027002A00000000002500C6
:1000A00028002B00040404040404040402020202D5
:1000B000020203030303030301020408102040802B
:1000C00001020408102001020408102000000008AA
:1000D000000201000003040700000000000000000F
:1000E000E20511241FBECFEFD8E0DEBFCDBF11E087
:1000F000A0E0B1E0E2ECF7E102C005900D92AA3376
:10010000B107D9F722E0AAE3B1E001C01D92A43003
:10011000B207E1F710E0C1E7D0E004C02197FE018B
:100120000E94D90BC037D107C9F70E9439060C9439
:10013000DF0B0C940000FC01538D448D252F30E023
:10014000842F90E0821B930B541710F0CF960895E4
:1001500001970895FC01918D828D981761F0A28D11
:10016000AE0FBF2FB11D5D968C91928D9F5F9F73D7
:10017000928F90E008958FEF9FEF0895FC01918D8D
:10018000828D981731F0828DE80FF11D858D90E0FA
:1001900008958FEF9FEF0895FC01918D228D892F97
:1001A00090E0805C9F4F821B91098F73992708957F
:1001B000FC01A48DA80FB92FB11DA35ABF4F2C91DC
:1001C000848D90E001968F739927848FA689B789D3
:1001D0002C93A089B1898C91837080648C93938DCA
:1001E000848D981306C00288F389E02D80818F7D6D
:1001F00080830895EF92FF920F931F93CF93DF9325
:10020000EC0181E0888F9B8D8C8D98131AC0E88952
:10021000F989808185FF15C09FB7F894EE89FF8921
:100220006083E889F98980818370806480839FBFBF
:1002300081E090E0DF91CF911F910F91FF90EF90BF
:100240000895F62E0B8D10E00F5F1F4F0F731127CF
:10025000E02E8C8D8E110CC00FB607FCFACFE8890A
:10026000F989808185FFF5CFCE010E94D800F1CFBA
:10027000EB8DEC0FFD2FF11DE35AFF4FF0829FB77E
:10028000F8940B8FEA89FB8980818062CFCFCF936E
:10029000DF93EC01888D8823B9F0AA89BB89E889AE
:1002A000F9898C9185FD03C0808186FD0DC00FB654
:1002B00007FCF7CF8C9185FFF2CF808185FFEDCFD2
:1002C000CE010E94D800E9CFDF91CF9108958BE451
:1002D00091E00E94CC0021E0892B09F420E0822FDC
:1002E000089580E090E0892B29F00E946701811138
:1002F0000C9400000895AF92BF92CF92DF92EF92DC
:10030000FF920F931F93CF93DF936C017B018B01BF
:10031000040F151FEB015E01AE18BF08C017D1070F
:1003200059F06991D601ED91FC910190F081E02D99
:10033000C6010995892B79F7C501DF91CF911F91EE
:100340000F91FF90EF90DF90CF90BF90AF90089506
:1003500090E0FC01E453FF4F2491FC01E854FF4F6F
:100360003491FC01EC55FF4FE491EE23C9F02223B8
:1003700039F0233001F1A8F4213019F1223029F1AC
:10038000F0E0EE0FFF1FE656FF4FA591B4918FB737
:10039000F894EC91611126C030953E233C938FBFB9
:1003A00008952730A9F02830C9F0243049F780910A
:1003B00080008F7D03C0809180008F7780938000C4
:1003C000DFCF84B58F7784BDDBCF84B58F7DFBCF46
:1003D0008091B0008F778093B000D2CF8091B00031
:1003E0008F7DF9CF3E2BDACFCF93DF9390E0FC01E6
:1003F000E854FF4F24918C559F4FFC018491882332
:10040000D1F090E0880F991FFC01E057FF4FA591B4
:10041000B491FC01E656FF4FC591D49161110EC015
:100420009FB7F8948C91E22FE0958E238C932881CE
:10043000E223E8839FBFDF91CF9108958FB7F894AF
:10044000EC91E22BEC938FBFF6CF3FB7F8948091FD
:100450003B0190913C01A0913D01B0913E0126B538
:10046000A89B05C02F3F19F00196A11DB11D3FBFEC
:10047000BA2FA92F982F8827BC01CD01620F711DBB
:10048000811D911D42E0660F771F881F991F4A95B5
:10049000D1F70895CF92DF92EF92FF920F931F93BF
:1004A000CF93DF93EC0101E010E0198308838CEB1C
:1004B000C82E8CE6D82E8BE1E82E88E4F82ECA826E
:1004C000DB82EC82FD821A861B861C861D861E86B8
:1004D0001F86188A198A1A8A1B8A1C8A1D8A0E94FA
:1004E00025026A8F7B8F8C8F9D8F1F8F0E8FC8A2E6
:1004F000D9A2EAA2FBA218A619A61AA61BA61CA698
:100500001DA61EA61FA618AA19AA1AAA1BAA0E94EF
:10051000250268AF79AF8AAF9BAF81E692E5A1E98A
:10052000B8E48A839B83AC83BD8388A399A3AAA3E1
:10053000BBA31A8A1B8A1C8A1D8A1E861F86188ADC
:10054000198A1A861B861C861D8618AA19AA1AAA39
:100550001BAA1CA61DA61EA61FA618A619A61AA68B
:100560001BA6DF91CF911F910F91FF90EF90DF902D
:10057000CF900895CF92DF92EF92FF92CF93DF93C7
:10058000EC01288139812130310559F030F12230D8
:10059000310591F02330310559F160E070E0CB0175
:1005A00004C06A857B858C859D85DF91CF91FF9006
:1005B000EF90DF90CF90089520E034E244E759E4D3
:1005C0006A817B818C819D810E94BB082A853B8545
:1005D0004C855D850E94EA0AE8CF2A853B854C85DB
:1005E0005D856A897B898C899D890E944908DDCF58
:1005F0002A853B854C855D856A897B898C899D89A7
:100600000E9449086B017C0120E034E244E759E490
:100610006A817B818C819D810E94BB089B01AC011A
:10062000C701B6010E94BB08C0CF089590E080E0EA
:100630000895FC0101900020E9F73197AF01481BB4
:10064000590BBC018CEE91E00C947B018F929F9230
:10065000AF92BF920F931F93CF93DF93CDB7DEB7C7
:10066000A1970FB6F894DEBF0FBECDBF19A24230DE
:1006700008F44AE08E010F5D1F4F842E912CB12C9F
:10068000A12CA50194010E94B70BE62FB901CA0164
:10069000EA30F4F4E05DD801EE938D01232B242B96
:1006A000252B79F790E080E0109719F0CD010E949A
:1006B0001903A1960FB6F894DEBF0FBECDBFDF9130
:1006C000CF911F910F91BF90AF909F908F90089501
:1006D000E95CE1CFCF93DF93EC0160E08E810E9473
:1006E000A80161E08E810E94A80160E08E810E94D5
:1006F000A8018BE891E00197F1F7DF91CF91089580
:10070000CF92DF92EF92FF920F931F93CF93DF93DD
:100710006C017C0187E0E80EF11CD0E0C0E0062F00
:1007200010E0B8010C2E02C0759567950A94E2F7A7
:100730006170F70181917F010E94A8012196C43068
:10074000D10579F7C601DF91CF911F910F91FF90ED
:10075000EF90DF90CF900C946A03CF92DF92EF92EC
:10076000FF920F931F93CF93DF93EC01F62E642F2C
:100770008C810E94A8018D818F3F19F060E00E945A
:10078000A8010F2D10E08F8584FF25C06E0187E042
:10079000C80ED11CF12CE12CB8010E2C02C07595AD
:1007A00067950A94E2F76170F60181916F010E94EA
:1007B000A801FFEFEF1AFF0A88E0E816F10461F7DD
:1007C000CE01DF91CF911F910F91FF90EF90DF90BD
:1007D000CF900C946A03B80184E0759567958A956B
:1007E000E1F7CE010E9480036F2DCE01DF91CF9102
:1007F0001F910F91FF90EF90DF90CF900C948003AA
:1008000040E0682F8CEE91E00C94AD03CF93DF9322
:10081000823029F49091FB0198609093FB018093C2
:10082000FF011092000280E48093010280E1809336
:10083000020280E58093030261E08091F0010E9452
:10084000F4018091F1018F3F19F061E00E94F40101
:1008500061E08091F2010E94F401CCEED1E09E01B2
:100860002C5E31408091FB0184FD0BC084E090E060
:1008700021962817390744F461E08E810E94F40123
:10088000EECF88E090E0F4CF8BE39DE00197F1F7A5
:1008900060E08091F0010E94A80160E08091F20187
:1008A0000E94A8018091F1018F3F19F060E00E9441
:1008B000A8018091FB0184FD39C063E08CEE91E0DA
:1008C0000E948003CBE4D6E4CE010197F1F763E008
:1008D0008CEE91E00E9480032197F1F763E08CEEAB
:1008E00091E00E94800383E592E00197F1F762E0D6
:1008F0008CEE91E00E9480038091FB0180620E9457
:10090000000484E08093FC018CE00E94000481E0FC
:100910000E9400048BE39FE10197F1F782E080934E
:10092000FD0186E0DF91CF910C94000480620E946B
:1009300000048BE496E40197F1F78091FB0180625B
:100940000E94000483E592E00197F1F78091FB019A
:1009500080620E940004D0CF41E00E94AD0381E09C
:1009600090E008954F925F926F927F928F929F9244
:10097000AF92BF92CF92DF92EF92FF92CF93DF932D
:10098000EC012A013B010E9425026B017C018A8D4A
:100990009B8DAC8DBD8DA7019601281B390B4A0B91
:1009A0005B0BCA01B9010E9498099B01AC012E8B17
:1009B0003F8B488F598FCA8EDB8EEC8EFD8ECA849A
:1009C000DB84EC84FD84CE86DF86E88AF98A4A8A55
:1009D0005B8A6C8A7D8A6A817B818C819D810E9481
:1009E000BB089B01AC012E833F834887598760E099
:1009F00070E080E89FEB0E94BB080E9435094B0124
:100A00005C01AC019B0160E070E080E89FE30E9424
:100A10004908A30192010E94EA0A2B013C01A501A9
:100A20009401C701B6010E94EA0A9B01AC01C3010F
:100A3000B2010E944A086A877B878C879D87CE0116
:100A4000DF91CF91FF90EF90DF90CF90BF90AF906C
:100A50009F908F907F906F905F904F900C94BA0210
:100A6000CF93DF93EC016E960E94B204AB01BC0100
:100A7000CE010E94B204CE01DF91CF910C94BA0254
:100A80001F920F920FB60F9211242F933F934F9303
:100A90005F936F937F938F939F93AF93BF93EF93E6
:100AA000FF938BE491E00E94D800FF91EF91BF91FA
:100AB000AF919F918F917F916F915F914F913F91F6
:100AC0002F910F900FBE0F901F9018951F920F92AD
:100AD0000FB60F9211242F938F939F93EF93FF9351
:100AE000E0915B01F0915C018081E0916101F09106
:100AF000620182FD1BC09081809164018F5F8F73C2
:100B000020916501821741F0E0916401F0E0E55B1E
:100B1000FE4F958F80936401FF91EF919F918F918C
:100B20002F910F900FBE0F901F9018958081F4CFDA
:100B30001F920F920FB60F9211242F933F938F9312
:100B40009F93AF93BF9380913F0190914001A091FB
:100B50004101B091420130913A0123E0230F2D373A
:100B600058F50196A11DB11D20933A0180933F01D4
:100B700090934001A0934101B093420180913B01C9
:100B800090913C01A0913D01B0913E010196A11DC3
:100B9000B11D80933B0190933C01A0933D01B09324
:100BA0003E01BF91AF919F918F913F912F910F90F7
:100BB0000FBE0F901F90189526E8230F0296A11DD7
:100BC000B11DD2CFEBE4F1E01382128288EE93E004
:100BD000A0E0B0E084839583A683B78384E091E0AE
:100BE0009183808385EC90E09587848784EC90E006
:100BF0009787868780EC90E0918B808B81EC90E0EA
:100C0000938B828B82EC90E0958B848B86EC90E0CA
:100C1000978B868B118E128E138E148EECEEF1E074
:100C20001382128286E191E0918380838CE0848339
:100C30008FEF85838BE0868385E0878384E08087E0
:100C400083E0818782E08287138614861586168664
:100C5000178681E00E9406048DEC9CECACE4BFE3B7
:100C60008093E8019093E901A093EA01B093EB012E
:100C70000895CF93DF93CDB7DEB7CC57D1090FB628
:100C8000F894DEBF0FBECDBF789484B5826084BD7A
:100C900084B5816084BD85B5826085BD85B5816080
:100CA00085BD80916E00816080936E0010928100FE
:100CB00080918100826080938100809181008160B9
:100CC000809381008091800081608093800080917A
:100CD000B10084608093B1008091B0008160809306
:100CE000B00080917A00846080937A0080917A00CD
:100CF000826080937A0080917A00816080937A008C
:100D000080917A00806880937A001092C10082E01E
:100D10000E9406048EE191E00E94190360E08EE0DB
:100D20000E94F401CE0105960E944A02CE018F5B1B
:100D30009F4F0E944A021F8A188E198E1A8E1B8A94
:100D40001C8A1D8A1E8A1F86188A198A1A8A1DAA59
:100D50001EAA1FAA18AE19AA1AAA1BAA1CAA1DA667
:100D60001EA61FA618AA67961CAE1DAE1EAE1FAE0D
:100D7000679763961CAE1DAE1EAE1FAE63972F968F
:100D80001CAE1DAE1EAE1FAE2F97E5961CAE1DAE5F
:100D90001EAE1FAEE597E1961CAE1DAE1EAE1FAE99
:100DA000E197AD961CAE1DAE1EAE1FAEAD97609125
:100DB000E8017091E9018091EA019091EB0169836A
:100DC0007A838B839C832DE33AE047E550E40E94CD
:100DD000BB0820E034E244E759E40E94EA0A6F834A
:100DE000788789879A876DA37EA38FA398A7279674
:100DF0006CAF7DAF8EAF9FAF2797A5966CAF7DAFE1
:100E00008EAF9FAFA59710E410937C0080917A007D
:100E1000806480937A0080917A0086FDFCCF809177
:100E2000780060917900762F682F072E000C880BD0
:100E3000990B0E9498096B017C01BC01A601CE01AF
:100E400005960E943005A7019601C701B6010E94D0
:100E5000EA0AAB01BC01CE018F5B9F4F0E943005B7
:100E60002FB7F89480913F0190914001A0914101EA
:100E7000B09142012FBF40914701509148016091CC
:100E8000490170914A01841B950BA60BB70B883E54
:100E90009340A105B10508F4B7CF2FB7F89480911E
:100EA0003F0190914001A0914101B09142012FBFBB
:100EB0008093470190934801A0934901B0934A0160
:100EC000CE01815A9F4F0E94BA026B017C01CE0174
:100ED00083960E94BA029B01AC010E94EA0A9B0120
:100EE000AC01C701B6010E9449086B017C0120E0FA
:100EF00030E0A9010E94B60887FF03C0C12CD12CA5
:100F00007601C701B6010E945D0B28EE36EF42E183
:100F10005CE30E94EA0A20E030E0A9010E944A084E
:100F20006B017C01C0924301D0924401E0924501E3
:100F3000F0924601E091FF01E230A8F4E150F0E0C8
:100F4000E451FE4F848980680E940004A701960145
:100F5000C701B6010E949D0B882339F08EE291E013
:100F60000E94190351CFE1E0EACF46015701E8940E
:100F7000B7F82FEF3FEF4FE75FE7C501B4010E94DD
:100F80009D0B81110DC02FEF3FEF4FE75FE7C501CC
:100F9000B4010E94B60818161CF482E391E0E0CF79
:100FA0002FEF3FEF4FE75FE4C701B6010E946F0AE2
:100FB00018161CF486E391E0D3CF2FEF3FEF4FE7F5
:100FC0005FECC701B6010E94B60887FDF3CF20E0B1
:100FD00030E0A901C701B6010E94B60887FF0AC028
:100FE00041E06DE28CEE91E00E94AD03F7FAF094DF
:100FF000F7F8F0942AE037ED43EA5BE3C701B60166
:101000000E944A084B015C010E9467096B017C0148
:101010000E9496099B01AC01C501B4010E944908D8
:101020004B015C014AE0C701B6010E94260341E082
:101030006EE28CEE91E00E94AD0320E030E040E2F1
:1010400051E4C501B4010E94EA0A4B015C010E940F
:1010500067096B01F12CE12C4AE0C701B6010E943F
:101060002603C701B6010E9496099B01AC01C50188
:10107000B4010E94490820E030E040E251E40E94BF
:10108000EA0A0E94670990E080E04AE00E94260395
:10109000BBCE5058BB27AA270E9461080C94350A82
:1010A0000E94270A38F00E942E0A20F039F49F3F50
:1010B00019F426F40C94FD090EF4E095E7FB0C946A
:1010C000F709E92F0E94460A58F3BA176207730717
:1010D0008407950720F079F4A6F50C94680A0EF4BD
:1010E000E0950B2EBA2FA02D0B01B90190010C0138
:1010F000CA01A0011124FF27591B99F0593F50F450
:10110000503E68F11A16F040A22F232F342F4427A7
:10111000585FF3CF469537952795A795F04053959F
:10112000C9F77EF41F16BA0B620B730B840BBAF06F
:101130009150A1F0FF0FBB1F661F771F881FC2F7DA
:101140000EC0BA0F621F731F841F48F487957795EE
:101150006795B795F7959E3F08F0B0CF9395880FA8
:1011600008F09927EE0F9795879508950E94D30967
:1011700008F481E008950E94CF080C94350A0E947B
:101180002E0A58F00E94270A40F029F45F3F29F008
:101190000C94F70951110C94690A0C94FD090E94F2
:1011A000460A68F39923B1F3552391F3951B550B28
:1011B000BB27AA2762177307840738F09F5F5F4F2A
:1011C000220F331F441FAA1FA9F335D00E2E3AF069
:1011D000E0E832D091505040E695001CCAF72BD081
:1011E000FE2F29D0660F771F881FBB1F26173707D2
:1011F0004807AB07B0E809F0BB0B802DBF01FF2704
:1012000093585F4F3AF09E3F510578F00C94F709E0
:101210000C94690A5F3FE4F3983ED4F38695779582
:101220006795B795F7959F5FC9F7880F911D9695BC
:10123000879597F90895E1E0660F771F881FBB1F18
:10124000621773078407BA0720F0621B730B840BC5
:10125000BA0BEE1F88F7E095089529F416F00C9468
:10126000F7090C94680A0C94FD090E944E0AA8F331
:101270009638A0F707F80F92E8942BE33AEA48EB88
:101280005FE70E94000B0F920F920F924DB75EB76F
:101290000F920E94B60AE8E6F0E00E94000A4F9121
:1012A0005F91EF91FF91E595EE1FFF1F49F0FE570B
:1012B000E0684427EE0F441FFA95E1F74195550B7E
:1012C0000E94800A0F9007FE0C94740A08950E94F1
:1012D0004E0A88F09F5798F0B92F9927B751B0F070
:1012E000E1F0660F771F881F991F1AF0BA95C9F7AA
:1012F00014C0B13091F00E94680AB1E008950C94D6
:10130000680A672F782F8827B85F39F0B93FCCF388
:10131000869577956795B395D9F73EF49095809526
:10132000709561957F4F8F4F9F4F0895E89409C046
:1013300097FB3EF490958095709561957F4F8F4F08
:101340009F4F9923A9F0F92F96E9BB279395F6951E
:10135000879577956795B795F111F8CFFAF4BB0F9C
:1013600011F460FF1BC06F5F7F4F8F4F9F4F16C000
:10137000882311F096E911C0772321F09EE8872F8A
:10138000762F05C0662371F096E8862F70E060E046
:101390002AF09A95660F771F881FDAF7880F9695BF
:1013A000879597F90895990F0008550FAA0BE0E863
:1013B000FEEF16161706E807F907C0F01216130617
:1013C000E407F50798F0621B730B840B950B39F457
:1013D0000A2661F0232B242B252B21F408950A26BD
:1013E00009F4A140A6958FEF811D811D089597F9FD
:1013F0009F6780E870E060E008959FEF80EC0895BB
:10140000DF93CF931F930F93FF92EF92DF927B01B5
:101410008C01689406C0DA2EEF010E94FD0AFE01DD
:10142000E894A5912591359145915591A6F3EF0149
:101430000E946108FE019701A801DA9469F7DF9024
:10144000EF90FF900F911F91CF91DF9108950024AD
:101450000A941616170618060906089500240A9419
:1014600012161306140605060895092E0394000C9F
:1014700011F4882352F0BB0F40F4BF2B11F460FF2E
:1014800004C06F5F7F4F8F4F9F4F089557FD905857
:10149000440F551F59F05F3F71F04795880F97FB38
:1014A000991F61F09F3F79F08795089512161306F2
:1014B0001406551FF2CF4695F1DF08C01616170621
:1014C0001806991FF1CF8695710561050894089556
:1014D000E894BB2766277727CB0197F908950E94E8
:1014E000D30908F48FEF08959B01AC0160E070E030
:1014F00080E89FE30C94BB080C94F7090C94A20BB2
:101500000E944E0AD8F39923C9F3940F511DA3F3F7
:101510009150504094F059F0882332F0660F771FB5
:10152000881F91505040C1F79E3F51052CF7880FFE
:10153000911D9695879597F908955F3FACF0983E79
:101540009CF0BB27869577956795B79508F4B160B1
:101550009395C1F7BB0F58F711F460FFE8CF6F5FA9
:101560007F4F8F4F9F4FE3CF0C94690AFA01DC0144
:10157000AA0FBB1F9B01AC01BF5728F422273327BA
:101580004427507820C0B75190F4AB2F00244695E3
:1015900037952795011CA395D2F3002071F0220FF7
:1015A000331F441FB395DAF30ED00C944908613011
:1015B0007105A0E88A07B94630F49B01AC016627A3
:1015C000772788279078309621F0208331834283D3
:1015D000538308950E94FD0A0C94350A0E94270A3D
:1015E00038F00E942E0A20F0952311F00C94F70990
:1015F0000C94FD0911240C94690A0E94460A70F3A8
:10160000959FC1F3950F50E0551F629FF001729FA7
:10161000BB27F00DB11D639FAA27F00DB11DAA1FB6
:10162000649F6627B00DA11D661F829F2227B00D03
:10163000A11D621F739FB00DA11D621F839FA00D8E
:10164000611D221F749F3327A00D611D231F849FDE
:10165000600D211D822F762F6A2F11249F57504035
:101660009AF0F1F088234AF0EE0FFF1FBB1F661FB0
:10167000771F881F91505040A9F79E3F510580F079
:101680000C94F7090C94690A5F3FE4F3983ED4F395
:10169000869577956795B795F795E7959F5FC1F71D
:1016A000FE2B880F911D9695879597F9089519F44B
:1016B00016F40C94FD090C94A20B0E944E0AB8F388
:1016C0009923C9F3B6F39F57550B87FF0E94B00BC0
:1016D0000024A0E640EA900180585695979528F49A
:1016E000805C660F771F881F20F026173707480792
:1016F00030F4621B730B840B202931294A2BA695E9
:1017000017940794202531254A2758F7660F771F2D
:10171000881F20F026173707480730F4620B730B39
:10172000840B200D311D411DA09581F7B901842F37
:101730009158880F9695879508950E94D309880B34
:10174000990B08959F3F31F0915020F4879577953C
:101750006795B795880F911D9695879597F9089588
:1017600091505040660F771F881FD2F70895A1E26D
:101770001A2EAA1BBB1BFD010DC0AA1FBB1FEE1F0B
:10178000FF1FA217B307E407F50720F0A21BB30B56
:10179000E40BF50B661F771F881F991F1A9469F7D2
:1017A00060957095809590959B01AC01BD01CF012E
:1017B0000895EE0FFF1F0590F491E02D0994F89421
:0217C000FFCF59
:1017C20000000000FA007B019B004701CC00AA0048
:1017D200BE0000000000AC047B0116031503414368
:1017E20020524D5320566F6C746167653A006E61EA
:0A17F2006E00696E66006F766600F7
:00000001FF
